:020000040800F2
:10000000D02D0020ED010008890C0008B30A00087B
:10001000850C0008290400085D2A00080000000083
:100020000000000000000000000000008125000822
:10003000BD060008000000000302000805020008D9
:10004000070200080702000807020008070200086C
:10005000070200080702000807020008070200085C
:10006000070200080702000807020008070200084C
:10007000070200080702000807020008ED05000853
:10008000070200080702000807020008070200082C
:10009000070200080702000807020008070200081C
:1000A000070200080702000807020008070200080C
:1000B00007020008070200080702000807020008FC
:1000C00007020008070200080702000807020008EC
:1000D00007020008070200080702000807020008DC
:1000E00007020008070200080702000807020008CC
:1000F00007020008070200080702000807020008BC
:1001000007020008AD1200080702000807020008F5
:10011000070200080702000807020008070200089B
:10012000070200080702000807020008070200088B
:1001300000F002F800F03AF80AA090E8000C8244BF
:100140008344AAF10107DA4501D100F02FF8AFF29C
:10015000090EBAE80F0013F0010F18BFFB1A43F0A5
:1001600001031847B0470000D0470000103A24BFF1
:1001700078C878C1FAD8520724BF30C830C144BF0C
:1001800004680C607047000000230024002500264E
:10019000103A28BF78C1FBD8520728BF30C148BFEA
:1001A0000B6070471FB51FBD10B510BD00F0F6F80D
:1001B0001146FFF7F7FF03F05BFF00F028F903B4E7
:1001C000FFF7F2FF03BC02F04BFC0000EFF30980E5
:1001D000704780F309887047EFF30880704780F319
:1001E0000888704740BA7047C0BA704709488047CE
:1001F00009480047FEE7FEE7FEE7FEE7FEE7FEE709
:10020000FEE7FEE7FEE7FEE704480549054A064B20
:10021000704700006D26000831010008D019002049
:10022000D02D0020D01D0020D01D002070470000E0
:100230000FB4044910B503AA029800F04FF810BC9F
:100240005DF814FB04000020032A40F2308010F017
:10025000030C00F0158011F8013BBCF1020F624461
:1002600098BF11F801CB00F8013B38BF11F8013BF2
:10027000A2F1040298BF00F801CB38BF00F8013B9F
:1002800011F0030300F03C80083AC0F0088051F8F8
:10029000043B083A51F804CBA0E80810F5E7121D1A
:1002A0005CBF51F8043B40F8043BAFF30080D20739
:1002B00024BF11F8013B11F801CB48BF11F8012B05
:1002C00024BF00F8013B00F801CB48BF00F8012B28
:1002D000704770477047704770470000074B70B514
:1002E0000D467B4400F043F80446284600F052F8DF
:1002F00010B14FF0FF3070BD204670BD1F3B0000B5
:1003000010B5203AC0F00B80B1E81850203AA0E8B0
:100310001850B1E81850A0E81850BFF4F5AF5FEAE4
:10032000027C24BFB1E81850A0E8185044BF18C997
:1003300018C0BDE810405FEA827C24BF51F8043B3E
:1003400040F8043B08BF7047D20728BF31F8023B92
:1003500048BF11F8012B28BF20F8023B48BF00F826
:10036000012B704701694A1C02610878704700B58B
:100370008FB0CDE901310021059105497944CDE9DE
:1003800003101146684600F02EF80FB000BD0000C3
:10039000E5FFFFFF007B00F080007047754600F02E
:1003A0003FF8AE4605006946534620F007008546F3
:1003B00018B020B5FFF728FFBDE820404FF0000639
:1003C0004FF000074FF000084FF0000B21F007013D
:1003D000AC46ACE8C009ACE8C009ACE8C009ACE880
:1003E000C0098D4670472DE9F04106460024D6E944
:1003F0000170F5688046304603E04146B847641C0A
:100400003046A8470028F8D12046BDE8F08110B555
:100410000446AFF300802046BDE81040FFF7CFBE92
:10042000004870477019002000BFFEE770B5002536
:100430004FF4803400E0641E24B1802000F00AFFF5
:100440000028F8D014B90325284670BD40F2FF50AB
:1004500000F0B8FE2846F8E7014600BF0748406BA9
:1004600000F045000028F9D040F2FF50034A9063A5
:100470001046406908221040C0B270470080014019
:1004800070B500251048446B01E00F48446B04F040
:1004900045000028F9D004F0040028B10325042009
:1004A00000F090FE284670BD04F0010028B101253F
:1004B000012000F087FE2846F5E740F2FF5000F0EB
:1004C00081FE2846EFE700000080014070B500255E
:1004D0000B48446B01E00A48446B04F045000028D7
:1004E000F9D004F0040028B10325042000F06AFECE
:1004F000284670BD40F2FF5000F064FE2846F8E741
:10050000008001402DE9F04106460F464FF00008FB
:100510002248456B01E02148456B05F04500002865
:10052000F9D005F0040038B14FF00308042000F0C2
:1005300049FE4046BDE8F08105F0010030B14FF0C2
:100540000108012000F03EFE4046F3E700F07CFE8B
:10055000B04203D04FF010084046EBE740F2FF50A6
:1005600000F030FE002000F095FE044604F46040E8
:1005700018B9200C38804046DCE704F4005008B17C
:100580001320D7E704F4804008B11020D2E704F428
:10059000004008B10F20CDE74046CBE70080014086
:1005A00070B500264FF480350F48446B02E06D1E95
:1005B0000D48446B04F0450008B9002DF7D115B182
:1005C00004F0040028B10326042000F0FBFD3046AF
:1005D00070BD04F0400028B10026402000F0F2FD7C
:1005E0003046F5E73046F3E70080014010B54FF4A0
:1005F000003000F02FF8012802D1400400F010F87C
:1006000010BD000000F0805111B10349086001E005
:1006100002494860704700000404024000000240A4
:1006200000F0805111B10349086001E002494860BF
:1006300070470000040402400000024021B102683B
:1006400042F00102026004E002684FF6FE731A40B5
:100650000260704701460020002201F0805313B170
:10066000054B1A6801E0054B1A6802EA01030BB159
:10067000012000E00020704700040240000002401A
:1006800010B50022026847F6F0739A430C6A8B6833
:1006900023430C6923434C6923438C692343CC696E
:1006A00023434C6A23438C6A23431A430260CB687A
:1006B00043600B6883604B68C36010BD70470000E7
:1006C00030B5044604254FF4302000F089F8054683
:1006D000042D17D10C48006940F002000A49086156
:1006E00008464461006940F0400008614FF4302042
:1006F00000F076F805460448006941F6FD710840AF
:1007000001490861284630BD0020024004200B4901
:10071000C96801F0010109B101200EE00749C9686B
:1007200001F0040109B1022007E00449C96801F0A1
:10073000100109B1032000E00420704700200240AE
:100740000348006940F080000149086170470000DB
:10075000002002400549096821F01001034A116098
:1007600011460968014311607047000000200240F3
:1007700070B504460D460426F00200F031F8064636
:10078000042E11D10948006940F0010007490861B1
:100790002580F00200F024F806460448006941F67E
:1007A000FE71084001490861304670BD00200240DA
:1007B00001460020034A106800F03800084310602A
:1007C0007047000000200240024803494860034887
:1007D000486070472301674500200240AB89EFCD98
:1007E00000B502460423FFF791FF034603E0FFF73D
:1007F0008DFF0346521E012B01D1002AF7D102B909
:100800000523184600BD00002DE9FC4107460D46B2
:100810000026002400200090019008205B49086019
:1008200010204860402088600020C8604FF480603D
:100830000861084600F06CFD1020FFF70DFE04462D
:1008400014B12046BDE8FC815148008800044F499E
:10085000086037204860402088600020C8604FF45E
:1008600080600861084600F053FD3720FFF7F4FD73
:1008700004460CB12046E5E74FF0FF3045490860DB
:1008800008204860302088600220C860002008618D
:1008900001204861084600F0ADFC00203B4908609B
:1008A00033204860402088600020C8604FF480609A
:1008B0000861084600F02CFD3320FFF7CDFD04460B
:1008C0000CB12046BEE709E04FF4001000F0C2FC76
:1008D00020B100F017FD4DF82600761C2E48406B25
:1008E00040F22A6108400028EED0082000F0B2FC57
:1008F00028B1082000F066FC04242046A2E702206C
:1009000000F0A8FC28B1022000F05CFC0224204684
:1009100098E7202000F09EFC28B1202000F052FC37
:10092000062420468EE74FF4007000F093FC30B1AF
:100930004FF4007000F046FC0724204682E740F2A6
:10094000FF5000F03FFC00980006009901F47F4141
:1009500040EA0120009901F47F0140EA112000994A
:1009600040EA1160686001980006019901F47F4136
:1009700040EA0120019901F47F0140EA1120019928
:1009800040EA1160286020465CE70000B8140020AF
:1009900020000020CC140020008001402DE9F0410F
:1009A000024600250026002000230024002791F89D
:1009B00003C00CF00F0591F803C00CF0100CBCF153
:1009C000000F03D091F802C04CEA050591F800C071
:1009D000BCF1000F31D0146800202BE04FF0010C67
:1009E0000CFA00F3B1F800C00CEA03069E4220D1D5
:1009F00083004FF00F0C0CFA03F7BC4305FA03FC1D
:100A00004CEA040491F803C0BCF1280F06D14FF062
:100A1000010C0CFA00FCC2F814C00AE091F803C003
:100A2000BCF1480F05D14FF0010C0CFA00FCC2F8E4
:100A300010C0401C0828D1D31460B1F800C0BCF12C
:100A4000FF0F34DD546800202EE000F1080C4FF059
:100A5000010808FA0CF3B1F800C00CEA03069E4244
:100A600021D183004FF00F0C0CFA03F7BC4305FAB9
:100A700003FC4CEA040491F803C0BCF1280F05D133
:100A800000F1080C08FA0CF8C2F8148091F803C0C1
:100A9000BCF1480F07D100F1080C4FF0010808FA2B
:100AA0000CF8C2F81080401C0828CED35460BDE872
:100AB000F08100BFFEE700007CB504460025002061
:100AC000019000905F48008800045F4908600D2095
:100AD0004860402088600020C8604FF48060086152
:100AE000084600F015FC5948406B009002E057485A
:100AF000406B0090009800F045000028F7D0009867
:100B000000F0040028B10325042000F05BFB284618
:100B10007CBD009800F0010028B10125012000F003
:100B200051FB2846F4E700F08FFB009000980D2859
:100B300002D010252846EBE740F2FF5000F042FBC0
:100B4000002000F0A7FB01900198C0F34320207023
:100B50003F490198084008B92846D9E7019800F0B4
:100B6000004008B11C20D3E7019800F0804008B194
:100B70000920CDE7019800F0005008B10A20C7E72E
:100B8000019800F0805008B10B20C1E7019800F0F7
:100B9000006008B10C20BBE7019800F0806008B14C
:100BA0000D20B5E7019800F0807008B10E20AFE786
:100BB000019800F4000008B10F20A9E7019800F4A3
:100BC000800008B11020A3E7019800F4001008B1DC
:100BD00011209DE7019800F4801008B1122097E7DA
:100BE000019800F4002008B1132091E7019800F467
:100BF000802008B114208BE7019800F4003008B180
:100C0000152085E7019800F4803008B116207FE7B1
:100C1000019800F4004008B1172079E7019800F42A
:100C2000804008B1182073E7019800F4005008B123
:100C300019206DE7019800F0080008B11A2067E755
:100C4000284665E720000020B814002000800140FD
:100C500008E0FFFD70B500F0EBF800F017F8012098
:100C600080F3108800BF0104C00600F085F8044836
:100C7000056844682846FFF7B2FA2646B04770BDBB
:100C80000000010800BFFEE7704700000020411E81
:100C90000B4A11604A0D0A498039C1F88420411E6F
:100CA0004FF0E022C2F880124A0D06490A6000BFE8
:100CB00003E0002204490A54401C0B28F9D3704772
:100CC00080E100E084E200E000E400E070B5002193
:100CD00000230F22C47804B3154C246804F4E064A4
:100CE000C4F5E064210AC1F10403CA40447804FA5F
:100CF00003F184781440214309010E4C0678A15574
:100D0000047804F01F050124AC4005786D11AD0096
:100D100005F1E025C5F8004109E0047804F01F055D
:100D20000124AC40044D0678761145F8264070BD8C
:100D30000CED00E000E400E080E100E00249014346
:100D4000024A1160704700000000FA050CED00E057
:100D500008B54FF4A060FFF7F1FF31208DF80000D7
:100D600000208DF801008DF8020001208DF80300AD
:100D70006846FFF7ABFF08BD024A0A400243024B38
:100D80001A60704780FFFF1F08ED00E029B1064A96
:100D900052690243044B5A6104E0034A5269824398
:100DA000014B5A61704700000010024029B1064A09
:100DB00092690243044B9A6104E0034A92698243B8
:100DC000014B9A61704700000010024010B500F01E
:100DD0002FF84FF4803000F0EDF800F049F90446A8
:100DE000012C24D1002000F0D9F8A00200F008F96D
:100DF000002000F011F90220FFF7DAFC1020FFF7C5
:100E0000A9FC4FF4E011200400F018F9012000F0D3
:100E10000FF900BF392000F09BF80028FAD002201B
:100E200000F01AF900BF00F0B1F80828FBD110BD9E
:100E30000F48006840F001000D490860084640680E
:100E40000C4908400A494860084600680A490840B9
:100E5000074908600846006820F4802008600846BA
:100E6000406820F4FE0048604FF41F00886070471F
:100E7000001002400000FFF8FFFFF6FE30B5002131
:100E80000022002400232D4D6D6805F00C0121B1D6
:100E9000042905D0082923D105E0294D056022E069
:100EA000274D05601FE0254D6D6805F47012234D38
:100EB0006D6805F48034022505EB92421CB9214D82
:100EC000554305600BE01D4D6D6805F400351DB1FF
:100ED0001C4D5543056002E0194D5543056002E085
:100EE000174D056000BF00BF144D6D6805F0F0019F
:100EF0000909154D6B5C0568DD4045600F4D6D6857
:100F000005F4E061090A104D6B5C4568DD408560C1
:100F10000A4D6D6805F46051C90A0B4D6B5C45685C
:100F2000DD40C560054D6D6805F44041890B074DF6
:100F30006B5CC568B5FBF3F5056130BD0010024080
:100F400000127A0000093D0008000020180000206F
:100F500010B501460022002300204A11012A02D1C7
:100F6000094C236806E0022A02D1074C236A01E0FB
:100F7000054C636A01F01F02012494401C400CB12F
:100F8000012000E0002010BD00100240024840682F
:100F900000F00C00704700000010024001460020E5
:100FA000034A506820F0F00008435060704700008A
:100FB000001002401149096821F480310F4A116084
:100FC0001146096821F480211160B0F5803F03D0FB
:100FD000B0F5802F0ED106E00849096841F4803150
:100FE000064A116007E00549096841F4A021034A57
:100FF000116000E000BF00BF704700000010024019
:1010000001460020034A506820F4E0600843506025
:10101000704700000010024001460020034A50685B
:1010200020F4605040EAC100506070470010024058
:101030000149086670470000000042420246002055
:10104000044B586820F47C1042EA01031843014B1A
:10105000586070470010024001460020034A506863
:1010600020F0030008435060704700000010024069
:1010700038B5002000900024002500BF3120FFF784
:1010800067FF05460098401C00900098B0F5A06FDF
:1010900001D0002DF2D03120FFF75AFF08B1012412
:1010A00000E00024204638BD7CB505460024002021
:1010B0000090019000F0EEF800F0007010B10E24E6
:1010C00020467CBD3D49098888B26946FFF79CFBF4
:1010D00004460CB12046F4E7012D36D1019800F406
:1010E000802000282ED0354800880004344908604C
:1010F00037204860402088600020C860A80208614E
:10110000084600F005F93720FFF7A6F904460CB1B0
:101110002046D6E702202A49086006204860402081
:1011200088600020C8604FF480600861084600F0C5
:10113000EFF80620FFF790F904460CB12046C0E70F
:101140002046BEE725242046BBE7019800F4803006
:1011500078B31A48008800041949086037204860AD
:10116000402088600020C8604FF480600861084615
:1011700000F0CEF83720FFF76FF904460CB1204697
:101180009FE700200E4908600620486040208860E4
:101190000020C8604FF480600861084600F0B8F88D
:1011A0000620FFF759F904460CB1204689E720468E
:1011B00087E7FFE72524204683E700002000002082
:1011C000B814002001498863704700000080014086
:1011D00001498863704700000080014001490860B0
:1011E00070470000A00030420149086070470000CD
:1011F0008C05304200210A4B02685A6242689A62AA
:101200001A46D16A21F0F701D0E902231A43036993
:101210001A4343691A431143014AD16270470000DF
:101220000080014000200649086048608860C8606E
:1012300048628862C862034888630020C8637047B8
:1012400000800140FF07C00001480069C0B270473C
:101250000080014001460020034A526B0A400AB157
:10126000012000E00020704700800140014600207E
:10127000034A526B0A400AB1012000E00020704787
:10128000008001400248006800F003007047000041
:101290000080014008B50146002000900248084443
:1012A00000900098006808BD1480014010B500F05F
:1012B00093FC10BD29B1064AD26B0243044BDA639A
:1012C00004E0034AD26B8243014BDA6370470000AB
:1012D0000080014000210A4A516847F6FF629143AD
:1012E000027D83681A4343681A43C3681A4303683C
:1012F0001A4303691A431143014A516070470000C1
:101300000080014001480068704700008080014073
:101310000021094B02689A601A46D1686FF30A01EE
:10132000D0E901231A43C3681A4303691A431143DE
:10133000014AD160704700000080014005490968FA
:1013400021F00301034A116011460968014311604D
:10135000704700000080014070B504460025214818
:101360000068032802D12725284670BD1D48006863
:1013700038B11C480068012803D01A4800680228C8
:101380002ED1B4F5805F02D127252846EDE7B4F5CC
:10139000006F14D10120FFF787FE054605BB022030
:1013A0001149087500200860486088604FF40060AB
:1013B000C860002008610846FFF78CFF10E000209D
:1013C000FFF772FE05465DB9022007490875002047
:1013D000086048608860C86008610846FFF77AFFC7
:1013E0002846C2E71C000020A0140020F0B50146EA
:1013F00000200022BE4B1B7881F85630BD4B1B8865
:10140000A1F85430BC4B1B681A0E93090B70C2F341
:1014100083034B7002F003038B70B74B1B68C3F35D
:101420000742CA70B44B1B88C3F307220A71B24B40
:101430001A784A715B681A0E1301CB80AE4B5B6859
:10144000C3F30742CB8843EA1213CB8002F00F03A9
:101450000B72A94B9B88C3F30722D3094B72C2F3CB
:1014600080138B72C2F34013CB72C2F300130B7361
:1014700000234B739E4B1B683BB19D4B1B68012B9C
:1014800003D09B4B1B68032B4FD193071B0D0B61A4
:10149000994B1A790B6943EA82030B61964B9B685F
:1014A0001A0E0B6943EA92130B61C2F3C2030B7568
:1014B00002F007034B75904B9B68C3F30742530937
:1014C0008B75C2F38203CB7593075B0F0B768A4B48
:1014D0001B89C3F307220B7E43EAD2130B760B69F9
:1014E0005B1C0024C1E912340B7ED1E912569B1C0F
:1014F000012404FA03F3DC17A5FB037C06FB03C3FA
:1015000005FB0433C1E912730C7A0123A3400B6578
:101510000027D1E912460B6DA4FB035C06FB03C355
:1015200004FB0733C1E912532DE0714B1B68022BFA
:1015300029D1714B1A7993069B0A0B616E4B9B68FC
:101540001A0E0B6943EA02230B616B4B9B68C3F3D2
:1015500007420B6913430B61674B1B89C3F30722D7
:101560000B695B1C4FF40074A3FB04344FF48066DA
:101570000027A3FB065C04FB06C403FB0743C1E989
:10158000125373100B65C2F3801301F8193F9306D1
:101590005B0E4B70584B1A7A4B7843EAD2134B7060
:1015A00002F07F038B70544BDB681A0ED309CB70AB
:1015B000C2F341130B71C2F382034B7193071B0FEC
:1015C0008B714D4BDB68C3F307428B7943EA92136F
:1015D0008B71C2F34013CB7100230B7202F0010335
:1015E0004B72454B9B89C3F30722D3098B72C2F31D
:1015F0008013CB72C2F340130B73C2F300134B730F
:10160000C2F381038B7302F00303CB733A4B1A7B53
:1016100053080B7401234B74384B1B681A0ECA74A1
:101620001939364B1B68C3F307421402CC85334B80
:101630001B88C3F30722CB8D1343CB852F4B1A781E
:1016400014060C635B681A0E0B6B43EA02440C63CE
:101650002A4B5B68C3F307420B6B43EA02240C631B
:10166000264B9B88C3F307220B6B13430B63234B5F
:101670001A7934235A54214B9B681A0E35235A5435
:101680001E4B9B68C3F3074214068C631B4B1B89DC
:10169000C3F307228B6B43EA02448C63174B1A7A1D
:1016A0008B6B43EA02248C63144BDB681A0E8B6B42
:1016B00013438B63114BDB68C3F307423C235B5C32
:1016C00043EA12143C235C5413071C0DCC870B4BCC
:1016D0009B89C3F30722CB8F1343CB87074B1A7B1E
:1016E000540840235C54012441235C54F0BD0000A5
:1016F0001C00002020000020E4140020F41400202E
:1017000010B5002400F038F9FFF722FBFFF78AFD3F
:1017100000F06CF904460CB1204610BD00F02AF828
:1017200004460CB12046F8E7022010490875002055
:10173000086048608860C86008610846FFF7CAFD15
:101740001CB90B48FFF752FE044634B90849B1F8FA
:101750005410080400F082FC044624B94FF40060E1
:10176000FFF7FAFD04462046D7E70000A01400204A
:101770001815002038B5002401200090FFF782FDE5
:1017800010B92524204638BD44480068042828D0D4
:1017900000204349086002204860C0208860002083
:1017A000C8604FF4806008610846FFF7B1FDFEF79E
:1017B00067FE04460CB12046E5E70020FFF76AFD0E
:1017C000384908600420FFF765FD36494860082065
:1017D000FFF760FD334988600C20FFF75BFD31495E
:1017E000C8602E48006858B12C480068012807D00E
:1017F0002A480068062803D028480068022816D125
:1018000000202749086003204860402088600020AD
:10181000C8604FF4806008610846FFF779FD6946AB
:101820000320FEF76FFE04460CB12046ABE71B48D1
:10183000006804282ED0BDF800001B490860BDF8E0
:10184000000000041649086009204860C020886034
:101850000020C8604FF4806008610846FFF758FD1B
:10186000FEF70EFE04460CB120468CE70020FFF781
:1018700011FD0E4908600420FFF70CFD0B4948607C
:101880000820FFF707FD094988600C20FFF702FDDB
:101890000649C8600024204675E700001C000020AF
:1018A000B8140020F414002020000020E4140020CC
:1018B00030B58BB005460C461348FEF7A3FE002159
:1018C0001248FEF7BBFE12480090019500200290DE
:1018D000A0080390002004908020059080000690CE
:1018E00080000790002008904FF4005009900020DD
:1018F0000A9069460548FEF7C3FE01210348FEF73A
:101900009DFE0BB030BD000000F00010440402400A
:101910008080014030B58BB005460C461348FEF779
:1019200071FE00211248FEF789FE124800900195D1
:1019300010200290A00803900020049080200590C1
:101940008000069080000790002008904FF400501F
:10195000099000200A9069460548FEF791FE012192
:101960000348FEF76BFE0BB030BD000000F0001026
:10197000440402408080014008B50121B020FFF7F7
:1019800015FA4FF4F850ADF8000003208DF802006E
:1019900018208DF8030069461148FEF7FFFF042068
:1019A000ADF8000003208DF8020018208DF8030028
:1019B00069460C48FEF7F2FF4FF40060ADF80000F6
:1019C00048208DF8030069460748FEF7E7FF01212C
:1019D0008802FFF7DBF901210220FFF7D7F908BDE4
:1019E0000010014000140140001C01402DE9F041AD
:1019F0000024002600250027A046B2207149087562
:101A00000020086048608860C86008610846FFF7E9
:101A100061FC0320FFF792FC0120FFF7DFFB0020B1
:101A20006949086048608860C8604FF48060086158
:101A30000846FFF76DFCFEF7F9FC044614B120469A
:101A4000BDE8F0814FF4D5705F4908600820486018
:101A5000402088600020C8604FF48060086108461C
:101A6000FFF756FCFEF79CFD04462CB901205749B0
:101A700008604FF0804812E000205349086037208A
:101A80004860402088600020C8604FF48060086192
:101A90000846FFF73DFC3720FEF7DEFC0446002039
:101AA0004949086037204860402088600020C860AD
:101AB0004FF4806008610846FFF72AFC3720FEF7E4
:101AC000CBFC0446002C4BD136E000203E49086098
:101AD00037204860402088600020C8604FF4806054
:101AE00008610846FFF714FC3720FEF7B5FC0446F2
:101AF0000CB12046A4E7364848EA000032490860A5
:101B000029204860402088600020C8604FF4806031
:101B100008610846FFF7FCFBFEF7D8FC04460CB151
:101B200020468DE70020FFF7B5FB0646012080EA3E
:101B3000D67080F001076D1C1FB94FF6FF7085420B
:101B4000C3D34FF6FF70854202D31B24204677E7AC
:101B500006F08040061E32D002201C4908602EE0AC
:101B600003201A4908601EE01A481749086001203E
:101B70004860402088600020C8604FF480600861A1
:101B80000846FFF7C5FBFEF7A1FC04460CB1204652
:101B900056E70020FFF77EFB0646012080EAD6705C
:101BA00080F001076D1C1FB94FF6FF708542DBD333
:101BB0004FF6FF70854202D31B24204640E72046A3
:101BC0003EE70000A0140020B81400201C000020F4
:101BD000000010800080FF8010B54FF48070FFF788
:101BE00045FB50B33F480068012814D100203E490E
:101BF00008600C204860402088600020C8604FF4D6
:101C0000806008610846FFF783FB0C20FEF724FC88
:101C10003649087002E00020344908704FF48070A3
:101C2000FFF7D6FA00214CF23A30FFF743FB0120D0
:101C30002F4908602D48007810BD0220FFF716FBE1
:101C400058B10220FFF7C4FA00214CF23A30FFF7F6
:101C500031FB022025490870EEE70820FFF706FB5C
:101C600058B10820FFF7B4FA00214CF23A30FFF7E0
:101C700021FB04201D490870DEE72020FFF7F6FA5B
:101C800058B12020FFF7A4FA00214CF23A30FFF7B8
:101C900011FB062015490870CEE71020FFF7E6FA81
:101CA00058B11020FFF794FA00214CF23A30FFF7B8
:101CB00001FB05200D490870BEE74FF40070FFF7E7
:101CC000D5FA60B14FF40070FFF782FA00214CF2B0
:101CD0003A30FFF7EFFA072004490870ACE700201C
:101CE000AAE7000028000020B814002024000020EB
:101CF0002C0000202DE9F04780460D4614464C4E3E
:101D0000002700204B4908704B4908604B49086088
:101D1000B8F1000F02D12620BDE8F0870020484925
:101D2000C86248480068022801D104026D0A4FF0D9
:101D3000FF3045490860002048608860C86008613D
:101D4000012048610846FFF755FA3D48406900F018
:101D5000007008B10E20DFE7002C1FDDB4F5006F26
:101D60001CDC601E2040C8B9204600F035FF8146CB
:101D700036480460102035494860402088600020C3
:101D8000C8604FF4806008610846FFF7C1FA102070
:101D9000FEF762FB07461FB13846BDE72620BBE7CA
:101DA0004FF0FF3028490860084644604FEA0910A8
:101DB00088600220C8600020086101204861084650
:101DC000FFF718FA2148056011202049486040209B
:101DD00088600020C8604FF4806008610846FFF703
:101DE00097FA1120FEF738FB07460FB1384693E704
:101DF00001214FF49570FFF75DFA0120FFF7F4F928
:101E000021464046FFF754FD094E00E0761E10487B
:101E1000006800F4005008B9002EF7D10EB9042074
:101E20007AE70448007808B102480778384673E733
:101E3000FFFF0100240000202C00002028000020CB
:101E4000008001401C000020CC140020B8140020A9
:101E5000000402402DE9F04106460F4614464FF0BB
:101E600000081948006800B17F0206F00300B8B10D
:101E7000002512E04FF4007000FB05710246134884
:101E8000FFF738FF80464FF4007210493046FEF7E6
:101E9000DBF906F50076681C85B2A542EADB10E0A6
:101EA000012C06D1620239463046FFF723FF8046F7
:101EB00007E023464FF400723946304600F008F838
:101EC00080464046BDE8F0811C00002070150020CF
:101ED0002DE9F04781460E4614461D460027BA46B6
:101EE000B8460020544908705449086001205449FC
:101EF000086000205349C86253480068022801D195
:101F00000402760A4FF0FF30504908600020486014
:101F10008860C8600861012048610846FFF76AF9D7
:101F20004848406900F0007010B10E20BDE8F0870D
:101F3000002C21DDB4F5006F1EDC601E2040D8B9F6
:101F4000204600F049FE8246414804601020404986
:101F50004860402088600020C8604FF480600861BD
:101F60000846FFF7D5F91020FEF776FA8046B8F15B
:101F7000000F03D04046D9E72620D7E705FB04F041
:101F8000B0F1007F03D34FF026084046CEE74FF074
:101F9000FF302E49086005FB04F048604FEA0A1044
:101FA00088600220C860002008610120486108465E
:101FB000FFF720F926480660122025494860402096
:101FC00088600020C8604FF4806008610846FFF711
:101FD0009FF91220FEF740FA8046B8F1000F01D0B9
:101FE0004046A3E7012140F22A30FFF763F90120C0
:101FF000FFF7FAF805FB04F14846FFF759FC154FC7
:1020000000E07F1E1448006800F4005008B9002F5B
:10201000F7D10FB9042089E700BF0848006818B954
:10202000054800780028F8D00348007810B102482D
:1020300090F80080404679E7240000202C00002022
:1020400028000020008001401C000020CC1400204B
:10205000B8140020FFFF01000004024070B50446E0
:1020600000250A480460072008494860402088602D
:102070000020C8604FF4806008610846FFF748F907
:102080000720FEF7E9F90546284670BDB814002080
:102090002DE9F84F80460F4614464FF00009002501
:1020A000AA460020009000267F4908707F490860FA
:1020B0007F490860B8F1000F02D12620BDE8F88FF3
:1020C00000207C49C8627C480068022801D10402D3
:1020D0007F0A4FF0FF30794908600020486088602F
:1020E000C8600861012048610846FFF783F871481D
:1020F000406900F0007008B10E20DFE7002C1FDD02
:10210000B4F5006F1CDC601E2040C8B9204600F00A
:1021100063FD81466A480460102069494860402098
:1021200088600020C8604FF4806008610846FFF7AF
:10213000EFF81020FEF790F906461EB13046BDE7D5
:102140002620BBE75F48008800045D4908600D2039
:102150004860402088600020C8604FF480600861BB
:102160000846FFF7D5F80D20FEF776F906460EB1C2
:102170003046A3E74F48D0F814A04FF0FF351BE0DE
:102180006D1E5048008800044D4908600D204860CD
:10219000402088600020C8604FF4806008610846D5
:1021A000FFF7B6F80D20FEF757F906460EB1304698
:1021B00084E74048D0F814A00AF4807008B9002DD4
:1021C000DED10DB9292079E73D48076018203C4948
:1021D0004860402088600020C8604FF4806008613B
:1021E0000846FFF795F81820FEF736F906460EB1B7
:1021F000304663E700202E490860401E2F490860E2
:10220000084644604FEA091088600020C8600861F1
:10221000012048610846FEF7EDFF012140F21A3027
:10222000FFF748F821464046FFF774FB0120FEF710
:10223000DBFF254D00E06D1E2448006800F40050CF
:1022400008B9002DF7D11DB9FFF75AFA042035E778
:102250001D4D00E06D1E1548006820B91248007839
:1022600008B9002DF6D10DB9042027E70E480078F3
:1022700010B10D48007821E740F2FF50FEF7A2FFB1
:102280006846FEF719FC064603E06846FEF714FCB4
:1022900006463EB99DF800000728F6D09DF80000DC
:1022A0000628F2D0304609E7240000202C00002048
:1022B00028000020008001401C000020CC140020D9
:1022C000B814002020000020FFFF0100000402409D
:1022D0002DE9F04104460F4615464FF00008194815
:1022E000006800B17F0204F00300B8B1002612E0DC
:1022F0004FF4007221461448FDF7A6FF4FF400701A
:1023000000FB067102461048FFF7C2FE804604F546
:102310000074701C86B2AE42EADB10E0012D06D1DB
:102320006A0239462046FFF7B3FE804607E02B4697
:102330004FF400723946204600F008F880464046C7
:10234000BDE8F0811C000020701500202DE9FC473D
:102350008146884614461F464FF0000A002500209B
:102360000190002600907C4908707C49086001209B
:102370007B490860B9F1000F02D12620BDE8FC8737
:1023800000207849C86278480068022803D1040216
:102390000920B8FBF0F84FF0FF30744908600020C6
:1023A00048608860C8600861012048610846FEF7FF
:1023B00021FF6C48406900F0007008B10E20DDE795
:1023C000002C1FDDB4F5006F1CDC601E2040C8B976
:1023D000204600F001FC82466548046010206449F4
:1023E0004860402088600020C8604FF48060086129
:1023F0000846FEF78DFF1020FEF72EF806461EB1A8
:102400003046BBE72620B9E707FB04F0B0F1007FB8
:1024100002D326263046B1E75648008800045449C6
:10242000086037204860402088600020C8604FF472
:10243000806008610846FEF76BFF3720FEF70CF856
:1024400006460EB1304699E74948076017204849CB
:102450004860402088600020C8604FF480600861B8
:102460000846FEF755FF1720FDF7F6FF06460EB1AA
:10247000304683E73E48C0F8008019203C49486058
:10248000402088600020C8604FF4806008610846E2
:10249000FEF73EFF1920FDF7DFFF06460EB130467E
:1024A0006CE74FF0FF303149086007FB04F04860EB
:1024B0004FEA0A1088600020C86008610120486166
:1024C0000846FEF797FE012140F21A30FEF7F2FEB1
:1024D0000120FEF789FE07FB04F14846FFF71AFAD0
:1024E000254D00E06D1E2548006800F4005008B935
:1024F000002DF7D11DB9FFF703F904203EE71E4D6B
:1025000000E06D1E1548006820B91348007808B92E
:10251000002DF6D10DB9042030E70F48007810B136
:102520000D4800782AE740F2FF50FEF74BFE01A865
:10253000FEF7C2FA064603E001A8FEF7BDFA06461A
:102540003EB99DF804000728F6D09DF8040006283F
:10255000F2D0304612E70000240000202C000020BA
:1025600028000020008001401C000020CC14002026
:10257000B814002020000020FFFF010000040240EA
:10258000704710B500F002F810BD00000CB5002037
:10259000019000903348006840F480303149086071
:1025A00000BF3048006800F4003000900198401CE3
:1025B0000190009818B90198B0F5A06FF1D12948A1
:1025C000006800F4003010B10120009001E000200C
:1025D00000900098012843D12348006840F0100083
:1025E000214908600846006820F00300086008469A
:1025F000006840F0020008601A48406819494860C5
:102600000846406848600846406840F4806048607A
:102610000846406820F47C1048600846406840F452
:10262000E81048600846006840F08070086000BF0D
:102630000C48006800F000700028F9D00948406894
:1026400020F00300074948600846406840F0020057
:10265000486000BF0348406800F00C000828F9D12A
:102660000CBD0000001002400020024010B51348CD
:10267000006840F0010011490860084640681049B0
:1026800008400E494860084600680E4908400B495A
:1026900008600846006820F480200860084640680A
:1026A00020F4FE0048604FF41F008860FFF769FFC8
:1026B0004FF000600449086010BD000000100240A7
:1026C0000000FFF8FFFFF6FE08ED00E02DE9F843FB
:1026D000804600250024012240A1414800F01EFF51
:1026E000404908700846007828B13FA0FDF7A0FDDA
:1026F000FEF7B0FA02E043A0FDF79AFD0122414641
:10270000454800F035FF374908700846007828B181
:1027100042A0FDF78DFDFEF79DFA02E046A0FDF711
:1027200087FD51E0494800EBC4266B464FF4006238
:102730004749394801F010F82A49087008460078DE
:10274000002833D1FEF740F83046FDF7B9FF0746C1
:10275000042F08D03CB9FDF7F3FF3EA0FDF768FD5C
:10276000FEF778FA31E0042F05D024B102E040A052
:10277000FDF75EFDFBE7002511E0354A32F8151044
:10278000022202FB0560FDF7F3FF0746042F04D089
:1027900002E037A0FDF74CFDFBE7681C85B200980E
:1027A000B5EB500FE9D3FDF7CBFF0BE02CB937A009
:1027B000FDF73EFDFEF74EFA07E002E02CA0FDF724
:1027C00037FDFBE7601C84B2ACE700BF35A0FDF726
:1027D0002FFDFEF73FFABDE8F8830000303A000015
:1027E0006402002000000020CEC4BCFECFB5CDB3F3
:1027F000B2BBB4E6D4DA2CB8FCD0C2CAA7B0DCA312
:10280000A10000005344BFA820B9D2D4DAB3C9B99B
:10281000A6A3A1200D0A000038000020CEC4BCFEF3
:10282000B9CCBCFEB2BBB4E6D4DA2CB8FCD0C2CA78
:10283000A7B0DCA3A1000000B4F2BFAACEC4BCFEC6
:10284000B3C9B9A6A3A1200D0A0000000000010829
:102850009C040020666C617368B2C1B3FDCAA7B066
:10286000DC2CB8FCD0C2CAA7B0DCA3A100000000D9
:10287000B9CCBCFEC9FDBCB6B7A2C9FAD1CFD6D877
:10288000B4EDCEF3A3A10D0A00000000CEC4BCFE3F
:10289000B6C1C8A1CAA7B0DC2CB8FCD0C2CAA7B0C8
:1028A000DCA3A100B9CCBCFEC9FDBCB6B3C9B9A6B6
:1028B000A3A10D0A0000000000B585B0012104208D
:1028C000FEF774FA01210420FEF770FA0121880353
:1028D000FEF76CFA4FF40070ADF8100001208DF88F
:1028E000120018208DF8130004A91548FEF756F8B9
:1028F0004FF48060ADF8100001208DF81200042024
:102900008DF8130004A90E48FEF748F84FF4614013
:1029100000900020ADF80400ADF80600ADF8080006
:10292000ADF80C000C20ADF80A006946054800F02F
:1029300025F80121034800F007F805B000BD0000AC
:10294000000801400038014021B1828942F4005260
:10295000828104E082894DF6FF731A4082817047BC
:1029600002460020B1F5007F00D100BF13880B4064
:102970000BB1012000E00020704700002DE9F04776
:1029800086B005460E460024A24600BFA146002799
:10299000B08900B100BF2F462C8A4CF6FF7004406E
:1029A000F08804432C82AC894EF6F3100440B088C2
:1029B00031890843718908430443AC81AC8A4FF6DE
:1029C000FF400440B0890443AC8201A8FEF756FAE8
:1029D0001F48874202D1DDF810A001E0DDF80CA00D
:1029E000A88900F4004040B10AEBCA0000EB0A10CD
:1029F00031684900B0FBF1F807E00AEBCA0000EBD0
:102A00000A1031688900B0FBF1F86420B8FBF0F0DF
:102A100004012009642101FB1089A88900F4004009
:102A200040B1322000EBC900B0FBF1F000F007002C
:102A3000044308E0322000EB09106421B0FBF1F000
:102A400000F00F0004432C8106B0BDE8F0870000C1
:102A500000380140C1F308028280704700BFFEE7E2
:102A600000BF704770B504460D460020E070401E60
:102A700060632946204601F039FB08B1042070BD8F
:102A800004F2362001F0EDFA4AF65521884201D0D1
:102A90000320F4E794F83800E92807D094F83800C8
:102AA000EB2803D094F83800E82811D1032209A1BB
:102AB00004F16E0001F0F2FA08B90020DFE7052208
:102AC00005A104F18A0001F0E9FA08B90020D6E76F
:102AD0000220D4E7464154004641543332000000FE
:102AE000024600E0521C107810B110788842F9D1EB
:102AF00010787047F0B503460D461E68986A021DAF
:102B0000680A7789B0FBF7F400BF02CA09B9002050
:102B1000F0BD8C4200D202E0641A121DF5E700BF3E
:102B200010682044F4E70246891ED069801E88425E
:102B300001D8002070475389106B03FB0100F9E7AF
:102B40002DE9F04780460C4604F11A0001F089FA9D
:102B500010B10020BDE8F087207800F03F00401E53
:102B600000EB800101EBC0054FF00109002621E0D8
:102B70001849895D081901F074FA0746B9F1000F88
:102B800011D0FF2D0BD2384600F0F2FE82462946C6
:102B90006D1C38F8110000F0EBFE824501D00020DA
:102BA000D8E7B94605E04FF6FF70874201D0002014
:102BB000D0E7761C0D2EDBD3207800F0400038B132
:102BC000B9F1000F04D038F8150008B10020C1E7B2
:102BD0000120BFE7AC4400080146002002E0491094
:102BE000421CD0B20129FAD170472DE9F047824644
:102BF0008846DAF80040B8F1000F06D1276917B10E
:102C0000E069B84215D8012713E04146504601F06B
:102C100071F90546022D02D20120BDE8F087681C3B
:102C200008B92846F9E7E069A84201D92846F4E73F
:102C30004746606908B90020EFE70026474518D1EC
:102C40007E1CE069B04200D802263146504601F0B1
:102C500051F90546012D01D0681C08B92846DCE76A
:102C60003DB12569022D03D3E069A84200D92F4662
:102C70000026E6B93E4600BF761CE069B04204D8A3
:102C80000226BE4201D90020C7E73146504601F076
:102C900031F9054605B909E0012D01D0681C08B9D4
:102CA0002846BAE7BE42E7D10020B6E700BF4FF0A2
:102CB000FF323146204601F033FA8146B9F1000F68
:102CC00008D1B8F1000F05D032464146204601F048
:102CD00027FA8146B9F1000F0DD12661E069801E07
:102CE0006169814202D86069401E6061207940F0CC
:102CF0000100207107E0B9F1010F02D14FF0FF3060
:102D000000E001200646304687E700002DE9F34F3A
:102D100083B08146049800680090D9F80000C76825
:102D2000002500BF684601F07DFB02900298401C20
:102D300018B9062005B0BDE8F08F0298B0F5803FC5
:102D400005D30298020C28466D1C27F81020029823
:102D500084B2202C03DB2F2C01D05C2C00D111E09D
:102D6000802C06DA214693A0FFF7BAFE08B10620B0
:102D7000E0E7FF2D01D30620DCE728466D1C27F88D
:102D80001040CFE700BF02E00098401C0090009880
:102D900000782F28F8D0009800785C28F4D00099AB
:102DA00004980160202C01DA042000E0002006468F
:102DB000012D04D1681E37F810002E280BD0022DEB
:102DC00024D1681E37F810002E281FD1A81E37F80E
:102DD00010002E281AD1002027F8150080460AE09E
:102DE000A84501D22E2100E0202109F1200000F8A1
:102DF000081008F10108B8F10B0FF1D346F02001DB
:102E000009F1200000F80810002093E708E0681E90
:102E100037F81040202C02D02E2C00D002E06D1E7E
:102E2000002DF4D100BF002027F815000DB90620B1
:102E300080E74FF0000A01E00AF1010A37F81A00B2
:102E40002028F9D0BAF1000F03D137F81A002E2844
:102E500001D146F0030600E06D1E25B1681E37F86B
:102E600010002E28F8D10B22202109F1200001F0BA
:102E700034F94FF00008C3460820019000BF5046C7
:102E80000AF1010A37F8104004B968E0202C03D099
:102E90002E2C04D1AA4502D046F00306EFE7019894
:102EA000804501D2AA4516D101980B2802D146F0DF
:102EB000030654E0AA4501D046F00306AA4500D90E
:102EC0004DE0AA464FF008080B2001904FEA8B60B6
:102ED0004FEA106BD3E7802C0EDB46F0020640F27F
:102EE000B511204600F024FD044604F0800018B11E
:102EF00004F07F0032490C5CFF2C10DD0198401E6D
:102F0000404504D846F00306DDF80480B7E72212F6
:102F1000404608F1010809F120010A5418E024B1E3
:102F2000214628A0FFF7DCFD18B15F2446F0030618
:102F30000EE0412C03DB5A2C01DC4BF0020B612C20
:102F400006DB7A2C04DC4BF0010BA4F1200084B2E8
:102F5000404608F1010809F120010C548FE700BF39
:102F600099F82000E52802D1052089F82000019871
:102F7000082803D14FEA8B604FEA106B0BF00C006E
:102F80000C2803D00BF00300032801D146F0020601
:102F900006F0020048B90BF0010008B146F0100637
:102FA0000BF0040008B146F008062B2000F8096079
:102FB0000020BFE6222A3A3C3E3F7C7F0000000012
:102FC000B94400082B2C3B3D5B5D0000014609B174
:102FD000002070470020FCE7014609B1002070473F
:102FE0000020FCE72DE9F04104460E46D4F80080AD
:102FF0000021204600F0DAF90546EDB9002700BFB0
:103000004046A16901F072F8054605B113E0E06998
:103010000078E52802D0E069007820B9781C0746DE
:10302000B04201D107E000270121204600F0BAF8A4
:103030000546002DE4D000BF042D00D10725284609
:10304000BDE8F0812DE9F047044688464FF00009BD
:10305000204601F0C2F910B10120BDE8F0874146D9
:103060002046FFF760FD064666634FF400720021BC
:1030700004F1380001F031F804F138090127002586
:1030800000E03D446089A84207D9721960783B4648
:10309000494600F017FA0028F3D06089A84201D011
:1030A0000120DAE70020D8E72DE9F0470446D4F8FC
:1030B00000A00021204600F079F9064616B13046FE
:1030C000BDE8F0874FF0FF08C1464FF0FF30E062E7
:1030D00000BF5046A16901F009F8064606B15EE05E
:1030E000E06905780DB9042659E0E069C07A00F07E
:1030F0003F07A771E52D04D007F0080038B10F2F66
:1031000005D04FF0FF084FF0FF30E06240E00F2F96
:1031100022D12B20005D00F0400098BB05F040005C
:1031200038B1E06990F80D9005F0BF05A846206918
:10313000E06245450CD1E069407B484508D1E16932
:10314000DAF80C00FFF7FCFC10B1A8F1010000E078
:10315000FF2000F0FF081BE0B8F1000F05D1E06987
:1031600001F02BF9484500D119E02B20005D00F05B
:10317000010040B90B2204F12001E06900F08EFF4C
:1031800008B90CE004E04FF0FF084FF0FF30E062B8
:103190000021204600F006F80646002E99D000BF18
:1031A00030468DE72DE9F0410446884627682069BE
:1031B00000F12006A06910B1B6F5001F02D304206B
:1031C000BDE8F081C6F30800002845D1A069401C85
:1031D000A061606938B93889B0EB561F3CD800202F
:1031E000A0610420ECE77889401E00EA562098BBD5
:1031F0002046616900F07EFE0546012D01D80220BF
:10320000DEE7681C08B90120DAE7F869A8421DD892
:10321000B8F1000F03D10020A0610420D0E72046C0
:103220006169FFF7E2FC05460DB90720C8E7012DEB
:1032300001D10220C4E7681C08B90120C0E7294673
:103240003846FFF7FFFE08B10120B9E7656129465E
:103250003846FFF768FCA0612661C6F3080107F154
:1032600038000844E0610020AAE72DE9FE4F04463B
:1032700026682B20005D00F0A00010B10620BDE8FC
:10328000FE8F4FF0000901E009F10109F06830F804
:1032900019000028F8D10C2204F12001684600F042
:1032A0000FFF9DF80B0000F0010028B340212B20F8
:1032B00001554FF001080EE04346694604F1200035
:1032C000F26800F0B1FD2046FFF7EEFE054605B1BD
:1032D00004E008F10108B8F1640FEDD300BFB8F1C4
:1032E000640F01D10720CAE7042D01D02846C6E7A4
:1032F0009DF80B102B2001559DF80B0000F00200EB
:1033000030B109F10C000D21B0FBF1F0401C00E0E0
:103310000120074639462046FFF764FE05464DBBAF
:10332000781E071E26D02069A0EB4711204600F02A
:103330003DF80546F5B904F1200001F03EF882465B
:1033400000BF3046A16900F0D1FE054605B110E08E
:10335000FAB2E1695346F06800F07EFF0120F07098
:1033600000212046FFF71EFF054615B9781E071EEF
:10337000E7D100BFC5B93046A16900F0B7FE0546E8
:1033800095B920220021E06900F0A7FE0B2204F18C
:103390002001E06900F094FE2B20005D00F0180091
:1033A000E16908730120F070284668E72DE9F041D3
:1033B00004460D462668B5F5001F02D205F01F0031
:1033C00010B10220BDE8F0812561A7681FB93078EF
:1033D000032800DBF76A47B93089B0EB551F01D8E5
:1033E0000220EFE7F06AA0611CE070894FEA4028F4
:1033F00011E03946204600F07DFD0746781C08B9EB
:103400000120DFE7022F02D3F069B84201D8022081
:10341000D8E7A5EB08054545EBD239463046FFF71E
:1034200082FBA0616761A06908B90220CAE7A069B0
:1034300000EB5520A061C5F3080106F138000844EF
:10344000E0610020BEE770B5054601262DB9FEF704
:1034500057F9044604B9002600E000BF00BF30461B
:1034600070BD2DE9F04705460E46174698464FF0C9
:10347000010925B1012D0DD0022D0DD10BE01FFA50
:1034800088F239463046FEF7E5FC04460CB94FF0A9
:10349000000902E001E000E000BF00BF4846BDE8CF
:1034A000F0870146002021B1012904D0022906D16C
:1034B00003E0002004E0002002E0002000E000BF64
:1034C00000BF70472DE9F04706460F4690461D465F
:1034D0004FF0010926B1012E18D0022E18D116E0A6
:1034E000AAB241463846FEF7F3FE044614B94FF03F
:1034F00000090AE0FEF704F9AAB241463846FEF791
:10350000E7FE04460CB94FF0000902E001E000E0DC
:1035100000BF00BF4846BDE8F0870000F7B582B0A5
:1035200016460398019001A800F056FD0546002DAF
:1035300002DA0B2005B0F0BD0C4850F825400CB164
:1035400000202070029810B10020029908700749ED
:10355000029841F825000EB90020EBE7002202A9ED
:1035600003A800F05DFA07463846E3E73000002084
:103570002DE9F74F90B0044616461CB9092013B048
:10358000BDE8F08F06F03F06324602A911A800F010
:1035900047FA0546002D7DD10298039003A81199A2
:1035A00000F0CAFB05462DB99DF8370000F08000F9
:1035B00000B1062506F01C00002850D045B1042DAE
:1035C00003D103A8FFF751FE054646F008060AE0BE
:1035D0009DF8120000F0110008B1072503E006F085
:1035E000040000B10825002D4AD106F0080000288B
:1035F00046D00A99029800F015FD814600F0EAFCD9
:1036000000900A9901F10E00009900F0C4FE2020FC
:103610000A99C87200220A99029800F0AAFE0A9933
:1036200001F11C00002100F0B6FE01200299C870D3
:10363000B9F1000F24D00298406B01900022494656
:1036400003A800F049FE0546D5B9DDE9011000F0F8
:103650004DFD0546A9F101000299086110E07DB910
:103660009DF8120000F0100008B1042508E006F0F3
:10367000020028B19DF8120000F0010000B10725FA
:103680005DB906F0080008B146F040060298406BAC
:10369000206200E04DE00A986062002D57D10A993F
:1036A000029800F0BFFCA0600A9901F11C0000F034
:1036B000CCFCE0600020A062029820600298C088E4
:1036C000A080267400206074E06160614FF4007295
:1036D000002104F12C0000F000FD06F0200040B3B2
:1036E000E06830B3E0686061029840894FEA402AA0
:1036F000A768D4F80C800CE03946204600F0FAFBAD
:103700000746012F00D80225781C00B90125A8EB37
:103710000A080DB9D045EFD8A76155B9C8F308001C
:1037200038B139460298FFF7FEF9B0F1000B01D12C
:1037300002250CE00BEB5820E061E2690299487821
:10374000012304F12C01FFF78CFE00B101250DB11E
:1037500000202060284612E72DE9FF4F85B004467F
:1037600015469A46DDF818B00020CAF8000003A9F3
:10377000204600F07DFE0490049810B9607C04900F
:1037800018B1049809B0BDE8F08F207C00F001006A
:1037900008B90720F6E76169E068401A01900198CE
:1037A000854200D9019DA8E0A08AC0F30800002846
:1037B00074D103984089401E616900EA5129B9F12A
:1037C000000F1FD1606910B9A06802900CE0A06AD8
:1037D00028B120466169FFF78DF9029004E0204688
:1037E000A16900F087FB02900298022802D2022011
:1037F0006074C7E70298401C10B901206074C1E7EB
:103800000298A061A1690398FFF78DF9064616B9E1
:1038100002206074B6E74E444FEA5528B8F1000F15
:1038200029D009EB080003994989884203D90398F4
:103830004089A0EB09080399487843463246594627
:10384000FFF70FFE10B1012060749BE7207C00F0B1
:10385000800068B1E069801B404509D2E169891B9D
:103860000BEB41204FF4007204F12C0100F028FC16
:103870004FEA482737E0E069B04220D0207C00F0D2
:10388000800080B1E26903994878012304F12C019A
:10389000FFF718FE18B10120607473E710E0207C78
:1038A00000F07F002074039948780123324604F128
:1038B0002C01FFF7D6FD10B10120607462E7E661CC
:1038C000A08AC0F30800C0F50077AF4200D92F46A8
:1038D000A08AC0F3080204F12C0011183A46584699
:1038E00000F0EEFB00BFED1BDAF800003844CAF828
:1038F0000000BB44606938446061002D7FF454AF20
:1039000000203FE710B502460020084B802A01DA6C
:10391000104609E040F2B514A14205D1FF2A03DCAC
:10392000A2F1800433F8140010BD000066450008C1
:1039300010B5024600200D4B802A01D290B213E050
:10394000B2F5803F10D240F2B514A1420CD1002054
:1039500001E0441CA0B2802803DA33F810409442FE
:10396000F7D100F18004E0B210BD00006645000808
:1039700070B5B0F5803F4DD281B2B1F5805F01DA0C
:10398000254E00E0254E324600BF32F8023B0BB117
:10399000994200DA3CE032F8024B2512E4B21E19DB
:1039A0008E4230DD092D2CD2DFE805F005090F131A
:1039B000171B1F232700CE1A32F8161021E0CE1A4B
:1039C00006F001068E1BB1B21BE0A1F11006B1B2E8
:1039D00017E0A1F12006B1B213E0A1F13006B1B2B7
:1039E0000FE0A1F11A06B1B20BE001F10806B1B285
:1039F00007E0A1F15006B1B203E0A1F5E356B1B280
:103A000000BF00BF04E0002DBFD102EB4402BCE7C1
:103A100000BF084670BD0000664600085848000810
:103A20002DE9F74F8AB000210B9801600A9800F049
:103A3000D3FA08900898002803DA0B200DB0BDE8EF
:103A4000F08FB749089851F820400CB90C20F5E7E1
:103A50000B9804600C9800F0FE000C90207878B170
:103A60006078FFF71EFD814609F0010040B90C980F
:103A700020B109F0040008B10A20DFE70020DDE7EB
:103A800000202070089860706078FFF7DCFC8146A9
:103A900009F0010008B10320D0E70C9820B109F02B
:103AA000040008B10A20C9E7002739462046FEF77E
:103AB000D9FF0546022D01D02EDA2DE0002614E0B4
:103AC0004FF4DF7000EB061104F138000844099050
:103AD0000998007920B10998083000F0B6FA00E0A2
:103AE000002002A941F82600761C042EE8D3002607
:103AF00006B1761E00BF02A850F8267027B13946DD
:103B00002046FEF7AFFF00E003200546022D03DB51
:103B1000701C06460428EED3042D01D101208DE748
:103B2000022D01DB0D2089E704F1430000F099FA32
:103B3000B0F5007F01D00D2080E704F14E0000F0C9
:103B400090FA8046B8F1000F04D104F15C0000F057
:103B50007CFA8046C4F820804820005DA070A078E0
:103B6000012804D0A078022801D00D2066E7A078B3
:103B700008FB00F84520005D6081608918B160890C
:103B8000411E084008B10D2058E704F1490000F03B
:103B900068FA2081207A00F00F0008B10D204DE76F
:103BA00004F14B0000F05DFA8346BBF1000F04D135
:103BB00004F1580000F049FA834604F1460000F091
:103BC00050FA0190019808B90D2037E70198404458
:103BD000218900EB111007900798834501D20D2031
:103BE0002CE70798ABEB00006189B0FBF1FABAF162
:103BF000000F01D10D2021E700254A48824500D859
:103C000003254FF6F570824500D8022540F6F57081
:103C1000824500D801250DB90D200FE70AF10200F9
:103C2000E061676201983844A062079838442063D5
:103C3000032D13D104F1620000F013FA08B10D2036
:103C4000FCE6208908B10D20F8E604F1640000F0DC
:103C5000FCF9E062E0698000069014E0208908B970
:103C60000D20EBE6A06A4044E062022D02D1E0693B
:103C7000400007E0207F00F00100E16901EB410115
:103C800000EB51000690216A069800F2FF10B1EB9C
:103C9000502F01D20D20D1E64FF0FF30606120613E
:103CA00080202071032D2CD104F1680000F0D9F997
:103CB000012826D1791C204600F018FA08BB002004
:103CC000207104F2362000F0CCF94AF655218842E2
:103CD00017D104F1380000F0B8F91349884210D127
:103CE00004F5077000F0B1F91049884209D104F5D4
:103CF000087000F0AAF9606104F5097000F0A5F9F8
:103D0000206125700A480088401C80B2084908805C
:103D1000E0800848E0600020A06100BF8EE600005F
:103D200030000020F5FFFF0F525261417272416175
:103D300034000020701700202DE9F3410446276865
:103D4000019800782F2806D0019800785C2802D0CE
:103D5000B869A0600DE002E00198401C0190019854
:103D600000782F28F8D0019800785C28F4D0002043
:103D7000A06001980078202808D280212B200155CE
:103D800000212046FFF712FB054637E000BF01A9DE
:103D90002046FEF7BBFF054605B12EE02046FFF7A3
:103DA00083F905462B20065D95B1042D0FD106F051
:103DB000200040B106F0040000B9E8E780212B2084
:103DC0000155002503E006F0040000B9052514E0C4
:103DD00006F0040000B110E0A07900F0100008B96E
:103DE00005250AE0208AC0F3080207F138001118FF
:103DF000384600F017F9A060C9E700BF2846BDE8C3
:103E0000FC81000070B504460D4600BF4021054806
:103E1000FEF7A6FD0028F9D0E1B20248FEF71AFE2F
:103E2000204670BD003801402DE9FF4F83B0804629
:103E300091461E460B224046049900F041F9052E9A
:103E400018D9374611E039F802BB00250BE0584677
:103E500067F35F0007464FEA6B0B07F4803008B149
:103E6000234847406D1C102DF1D3B9F800000028FD
:103E7000E9D13E46072500BF06F00F0000F1300AE9
:103E8000BAF1390F03DD0AF1070000F0FF0A2846F6
:103E90006D1E01A901F800A03609002EECD17E208C
:103EA000485500240AE018F80400FFF78FF820B105
:103EB000681EA04200D107E0641C641CAC4203D21F
:103EC00018F804002028EED100BF00BF082D04D24E
:103ED00028466D1C01A9085C00E020202146641CD6
:103EE00008F80100082CF1D307B0BDE8F08F0000FE
:103EF000211001002DE9F04781460C46D9F8005009
:103F0000022C02D3E869A04202D84FF001085EE01B
:103F10004FF0FF382878012804D002282CD003283D
:103F200051D13CE0264606EB5606A86A00EB562126
:103F3000284600F0DBF800B148E03046761CC0F3BC
:103F4000080105F13800475CA86A00EB56212846B5
:103F500000F0CCF800B139E0C6F3080105F13800F3
:103F6000405C47EA002704F0010008B1380901E08D
:103F7000C7F30B00804629E0A86A00EB142128460D
:103F800000F0B4F800B121E040F2FF1101EA440270
:103F900005F13801501800F064F8804616E0A86A70
:103FA00000EBD411284600F0A1F800B10EE040F279
:103FB000FF1101EA840205F13801501800F045F8BC
:103FC00020F0704802E04FF0010800BF00BF4046FB
:103FD000BDE8F0870020704730B502464FF0FF3053
:103FE0001568F5B1116800E0491C0D78202D02D349
:103FF0000D783A2DF8D10D783A2D11D1146814F8B6
:10400000013B302B0DD3392B0BD88C4209D1A3F1B6
:1040100030052B1E05D118464D1C2946156000E0C1
:10402000002030BD70B505460C4604F11A0000F0C2
:1040300018F806462878032805D104F1140000F08A
:1040400010F846EA0046304670BD0146C8788A78C6
:1040500042EA00204A7842EA00200A7842EA002038
:104060007047014648780A7842EA0020704700000D
:10407000FCF7ACFEFEF720FC02A0FEF727FB00BF1A
:10408000FEE70000303A2F53797374656D2F546545
:104090006D706C6174652E62696E0000F0B5034648
:1040A0001D460C46002000BF15F8017B14F801CB1B
:1040B000A7EB0C00561E321E01D00028F4D0F0BD34
:1040C00030B503460C463AB100BF14F8015B03F863
:1040D000015B551E2A1EF8D130BD10B5034600BF46
:1040E00003F8011B541E221EFAD110BD70B5044600
:1040F0000D460026606BA84210D0204600F06DF9F6
:1041000006465EB9607801232A4604F13801FFF7BC
:10411000A8F910B14FF0FF3501266563304670BD38
:104120002DE9F04704460D4616464FF00209022DD0
:1041300074D3E069A84271D92078012804D00228FC
:1041400049D003280DD15EE02F4607EB5707A06A40
:1041500000EB57212046FFF7C9FF8146B9F1000F58
:1041600000D075E038467F1CC0F3080104F1380028
:1041700001EB000805F0010028B1F1B298F8000049
:1041800061F31F1000E0304688F800000120E07065
:10419000A06A00EB57212046FFF7A8FF8146B9F13E
:1041A000000F00D054E0C7F3080104F1380001EB20
:1041B000000805F0010010B1C6F3071006E098F8FA
:1041C000000000F0F000C6F30321084388F8000067
:1041D0000120E0703CE0A06A00EB15212046FFF7CB
:1041E00085FF8146B9F1000F00D031E0B1B240F255
:1041F000FF1202EA450304F13802981800F0D7F8DC
:104200000120E07024E0A06A00EBD5112046FFF702
:104210006DFF8146B9F1000F01D019E019E040F2BD
:10422000FF1101EA850204F138015018FFF70DFF74
:1042300066F31B00064640F2FF1101EA850204F115
:1042400038015018314600F0A6F80120E07000BF98
:1042500000BF4846BDE8F0872DE9F04707460C4609
:104260001546984684F80D800F20E07200202073D8
:10427000002104F11A0000F09AF8681E00EB80019A
:1042800001EBC00900200646824600BF4FF6FF70D2
:10429000864204D0484609F1010937F810600D49FB
:1042A00011F80A100819314600F081F80EB94FF6DE
:1042B000FF760AF1010082460D28E7D34FF6FF7022
:1042C000864202D037F8190008B945F0400525703C
:1042D000BDE8F087AC4400082DE9F04781460E4662
:1042E00017464FF00008D9F80040022E02D3E069CB
:1042F000B04202D80220BDE8F08767B100BF4FF09E
:10430000FF3239462046FFF70BFF8046B8F1000F19
:1043100001D04046EFE700BF31464846FFF7EAFDCF
:10432000054605B922E0012D01D10220E3E7681C12
:1043300008B90120DFE7002231462046FFF7F0FEF2
:104340008046B8F1000F01D04046D4E7E069801EF6
:104350006169814206D26069401C6061207940F049
:10436000010020712E46E069B042D5D800BF002080
:10437000C1E770B506460C461546A9B204F11A000D
:1043800000F015F83078032804D1290C04F114004A
:1043900000F00DF870BD00F8011B090A00F8011BC0
:1043A000090A00F8011B090A00F8011B704700F810
:1043B000011B091200F8011B704730B501460020AF
:1043C0000B2200BF431003EBC01411F8015B63190B
:1043D000D8B2531E1A1EF5D130BD70B50446002563
:1043E000E078E8B16078012304F13801626BFFF7EF
:1043F00069F8A0B90020E070A16A606B401A216AD8
:1044000088420DD2A07802280AD1236A616BCA18AB
:104410006078012304F13801FFF754F800E001252A
:10442000284670BD2DE9F0410646356815F8014B68
:104430002046FEF7CBFD60B115F8017B3846FEF74C
:10444000CBFD18B94FF0FF30BDE8F08107EB042039
:1044500084B24CB140F2B5112046FFF753FA04463E
:1044600014B94FF0FF30EFE7A04635604046EBE768
:1044700070B504460D4609268CB1206878B12068D5
:10448000007860B1A0882168C988884207D1216876
:104490004878FFF706F800F0010000B900260EB9D1
:1044A000206800E000202860304670BD0103050749
:1044B000090E10121416181C1E809A45418E418F49
:1044C000804545454949498E8F9092924F994F5565
:1044D0005559999A9B9C9D9E9F41494F55A5A5A6CC
:1044E000A7A8A9AAABACADAEAFB0B1B2B3B4B5B6E4
:1044F000B7B8B9BABBBCBDBEBFC0C1C2C3C4C5C6D4
:10450000C7C8C9CACBCCCDCECFD0D1D2D3D4D5D6C3
:10451000D7D8D9DADBDCDDDEDFE0E1E2E3E4E5E6B3
:10452000E7E8E9EAEBECEDEEEFF0F1F2F3F4F5F6A3
:10453000F7F8F9FAFBFCFDFEFF2B2E2C3B3D5B5DF3
:10454000222A3A3C3E3F7C7F00000100040010001C
:104550004000000100020000010002000400080009
:10456000100020000000C700FC00E900E200E400A9
:10457000E000E500E700EA00EB00E800EF00EE00F5
:10458000EC00C400C500C900E600C600F400F60057
:10459000F200FB00F900FF00D600DC00A200A3003F
:1045A000A500A7209201E100ED00F300FA00F10060
:1045B000D100AA00BA00BF001023AC00BD00BC00AF
:1045C000A100AB00BB00912592259325022524254F
:1045D00061256225562555256325512557255D25DD
:1045E0005C255B251025142534252C251C2500254C
:1045F0003C255E255F255A255425692566256025BD
:1046000050256C256725682564256525592558257D
:10461000522553256B256A2518250C2588258425C8
:104620008C2590258025B103DF009303C003A303ED
:10463000C303B500C403A6039803A903B4031E2251
:10464000C603B50329226122B1006522642220231A
:104650002123F7004822B0001922B7001A227F2038
:10466000B200A025A00061001A03E0001703F800C3
:104670000703FF000100780100013001320106014B
:10468000390110014A012E017901060180014D0016
:104690004302810182018201840184018601870134
:1046A000870189018A018B018B018D018E018F01A8
:1046B00090019101910193019401F60196019701F6
:1046C000980198013D029B019C019D0120029F01E0
:1046D000A001A001A201A201A401A401A601A701B9
:1046E000A701A901AA01AB01AC01AC01AE01AF0168
:1046F000AF01B101B201B301B301B501B501B70119
:10470000B801B801BA01BB01BC01BC01BE01F7018F
:10471000C001C101C201C301C401C501C401C70177
:10472000C801C701CA01CB01CA01CD011001DD01D9
:1047300001008E01DE011201F3010300F101F40119
:10474000F401F8012801220212013A020900652C45
:104750003B023B023D02662C3F0240024102410205
:1047600046020A0153024000810186015502890177
:104770008A0158028F015A0290015C025D025E02BA
:104780005F029301610262029401640265026602A3
:104790006702970196016A02622C6C026D026E023A
:1047A0009C01700271029D01730274029F017602E6
:1047B0007702780279027A027B027C02642C7E0204
:1047C0007F02A60181028202A9018402850286027B
:1047D0008702AE014402B101B20145028D028E0290
:1047E0008F0290029102B7017B030300FD03FE03D9
:1047F000FF03AC0304008603880389038A03B10323
:104800001103C2030200A303A303C4030803CC03E0
:1048100003008C038E038F03D8031801F2030A00F0
:10482000F903F303F403F503F603F703F703F903BE
:10483000FA03FA0330042003500410076004220135
:104840008A043601C1040E01CF040100C004D00463
:1048500044016105260400007D1D0100632C001E3B
:104860009601A01E5A01001F0806101F0606201FF1
:104870000806301F0806401F0606511F0700591F73
:10488000521F5B1F541F5D1F561F5F1F601F0806CE
:10489000701F0E00BA1FBB1FC81FC91FCA1FCB1F26
:1048A000DA1FDB1FF81FF91FEA1FEB1FFA1FFB1FA0
:1048B000801F0806901F0806A01F0806B01F0400EE
:1048C000B81FB91FB21FBC1FCC1F0100C31FD01FD0
:1048D0000206E01F0206E51F0100EC1FF31F0100A6
:1048E000FC1F4E21010032217021100284210100A1
:1048F0008321D0241A05302C2F04602C0201672C50
:104900000601752C0201802C6401002D260841FF50
:104910001A0300003449000800000020380000009D
:104920006C0100086C49000838000020982D000038
:1049300088010008000000000000000000000000E6
:104940000102030401020304060708090204060821
:104950000100000000000000000000000000000056
:0C4960000000000000000000000000004B
:0400000508000131BD
:00000001FF
